:020000040000FA
:0600000002139702084BF9
:03002B000210E5DB
:03003300020F8138
:0300530002077A27
:100083000207DC01010000000000F8FF07FFFF008A
:10009300000504000000030001FFFFFFFF00141030
:1000A3002700000020FD000206FFFF1E0076011856
:1000B300171E17601D000000000000000000000074
:1000C300000000000000000000000000000000002D
:1000D300000000000000000000000000000000FF1E
:1000E3000104010C00020738860000000204010C21
:1000F3000002010088000000010400005214000007
:1001030000E8030000FFFFA3140188130000E803C5
:10011300000064006400B801A0BB0D00A0BB0D008B
:10012300020202070401051E02051E020A0A01015A
:1001330008080103B80B02803E0102FEFFE8030A30
:10014300050001FFFF020A011401E00100B0423B78
:10015300AAB83F0000003F8C906339AA0CA33A0071
:10016300941E3C8042633DCFFE753E1572313F00C5
:1001730000803FF304353F8096184B000080BF2278
:1001830092D43EDD9B2A3F04000040FFFF7F7FFFA8
:10019300FF7FFF010080341872313F050301010F17
:1001A3000300030003000300030003000300030034
:1001B300030005000A00140028004F009E00000001
:1001C300962F000000006A2E00000000FF000000D0
:1001D300FF001213C560461213E3603DE96870081F
:1001E300F618F618F618F622748067F71202090952
:1001F3000909748067F7221213E3601D1213C57097
:1002030005191919801A121272701F121286C370FF
:1002130003E6673319191940071818182208080844
:1002230074FFF618F618F618F622121286601712E3
:100233001463702192F01214517019501720F014A6
:10024300080808090909E7F61819E7F61819E7F67F
:100253001819E7F62212145160E6E869701F0808BE
:10026300E62480F608E436F618547FB47F0CE6548F
:10027300806007F6E418F618F622181822E9C6CCAF
:1002830008C6CD08C6CE08C6CFC0E0E8C0E0EAC0C5
:10029300E0EBC0E009E9F809E7FA09E7FBE6F9183A
:1002A300E6F8C3EC98ED99EE9AEBC2E7F5F0EFC2EE
:1002B300E795F0500E600CEBCFFBEACEFAE9CDF9EF
:1002C300E8CCF8EAA2E7D2E7FAEB33FB13F5F0EE5A
:1002D300A2E7D2E7FEEF33FFC5F013A2E730E60152
:1002E300B313C5F0C3C0E0C0F07F00C39BFB605EE7
:1002F3009418600F401D14601AD0E023F9D0E0F881
:100303000203DB8AF0E9486003D2F0E4AFF0FAF9C4
:10031300F8803BEB30E40D89F0EA6003D2F0E4AF00
:10032300F0F9CAF8EB30E30D88F0EF6002D2F0AFDA
:10033300F0E4CAC9F8EB54076014FBC3EA13FAE903
:1003430013F9E813F8EF135002D2E0FFDBEDD0E02E
:10035300C0E030E739C3E49FFFF5F0EC98FC42F0CE
:10036300ED99FD42F0EE9AFE42F0D0E0F9D0E0F8CC
:10037300E5F0607AE923F9EE20E742D8028067C30B
:10038300EF33FFEC33FCED33FDEE33FE80EAEC2874
:10039300FCED39FDEE3AFED0E023F9D0E0F840025F
:1003A300801BC3EE13FEED13FDEC13FCEF135002A1
:1003B300D2E0FF08B800067F7F74FF802EEF335032
:1003C300178CF020F00260100CBC000C0DBD00086F
:1003D3000EBE000408E860DFE933E813FFEE2313E1
:1003E300FE4F4D4C8008E95480FFE4FEFDFCEE33E4
:1003F300EF33F47004FCFD7E80D0E0FBD0E0FAD054
:10040300E0F8D0E0CFC618CEC618CDC618CCC6F9D2
:10041300221213E37004181818221213C5700D74F6
:10042300FFF61819F61819F61819F622E75480661C
:10043300F6121451700F12146370F014F608F608D4
:10044300F608F680D1121463700CF608F60876806D
:1004530008E6447F80EC121289700C12127560BF9B
:10046300E65480F6E480BB121275700519191980E1
:10047300A5E869700C763F18768018F618F6E8F947
:1004830022E6CDC0E018ECC0E0E633CD33CDD31384
:10049300F6E719FCE7191933CC33C3947F400ECD2B
:1004A3009D502408E65480F6E418F6800FF4043DCA
:1004B30014501408E6447FF6187680E418F618F60C
:1004C300D0E0FCD0E0FD22CCD313CCFD18E4C6CBA6
:1004D300C0E018E4C6CAC0E00808ED08C633E61356
:1004E300F618E433C675F003C3CA97CA09CB97CB92
:1004F300199C40047D08802EBD00030205BD16B67D
:10050300FF050606081618C3CA33CACB33CB33CA52
:1005130027CA09CB37CB193CC37D08803E187D0819
:1005230020E75CC633C6CA33CACB33CB33DDF1D540
:10053300F0EB30E77BCA97CA09CB974ACB199C40AB
:100543006F4B7025E620E0218066187D08C3CA97AB
:10055300CA09CB97CB199CD3C633C6CA33CACB338C
:10056300CB3350C9DDE7D5F0E1D3E4C636C608C6C0
:1005730036C608C636C608C636C61818188031C32C
:10058300CA97CA09CB97CB199CB34097C633C6CA3F
:1005930033CACB33CB33DD34D5F02EC6A2E0C6400D
:1005A300C8CA27CA09CB37194A70BECB3CB480B935
:1005B3000808E63308E633601F181818D0E0FAD0AD
:1005C300E0FBD0E0FCD0E0FD22187D08CA27CA0971
:1005D300CB37CB193CD3808013F618E4B67F11F6E2
:1005E30018B6FF0EF618C60470D20808768080CAC3
:1005F300F618F618F680C5001213E3604F1213C500
:100603006012E7548066F61212727011121463704E
:100613003B090909F4F618F618F618F622121286A1
:10062300701512145108080860EAE6447FF618763C
:100633008018E4F618F6221214516016121463702F
:1006430012E4F608F608F608E65480F609090918D4
:10065300181822EAC0E0EBC0E0ECC0E0EDC0E0E631
:1006630087F0A4FBACF008E687F0A42CFCE435F09B
:10067300FA1809E687F0A42C4B60027401CA35F01E
:10068300FCE433FB09E687F0D2F7A42CCB35F0FC6E
:100693001908E687F0A42BCC35F0FBE433FD0819E9
:1006A300E687F0D2E7A42C4ACB35F0CD3400FC0921
:1006B300E687F0D2E7A42DCC35F0FDE433FA091830
:1006C300E687F0D2F7A42CCD35F0CA3400FC08E657
:1006D30087F0D2E7D2F7A42ACC35F07A7E20E70B55
:1006E3000ACB33CBCD33CDCC33CC33CB3350147097
:1006F30004ED30E00ED2F1E4CD3DCDCC3CCC3B500B
:1007030005DA05C2F1EB547FC63308E63392F0FBFA
:10071300E73309E733C39A502D2B70190C0D4C4D59
:1007230070151806E608C333700D20F10AA2F01302
:10073300F6E418800B4024E4F630F002768018F6D5
:1007430018F618F68024D33B14501074FFA2F0134C
:10075300F6187680E418F618F6800FA2F013F61850
:10076300E63303F618ECF618EDF6D0E0FDD0E0FC26
:10077300D0E0FBD0E0FA22C0E074F1120BE6A2AFA6
:10078300E433F509D2AF85A708AFA1EF5508FE748E
:10079300105E60061217FC75A1EF74085E60081204
:1007A300180275A1F78024EFA2E092F0E508A2E019
:1007B30082F05017906198E0F8900634E0C398A255
:1007C300D265D0335002E8F075A1FE752300E50928
:1007D300A2E092AF7F02020C45C0E074F2120BE676
:1007E300A2AFE433FED2AF9061A4E0F8759B00E5BD
:1007F3009158540860087591F71218508023E591B9
:1008030058541060087591EF1218568014E591A2A0
:10081300E092F0E8A2E082F05007E0C2E0F01219A3
:10082300AC9061A3E0F8E5E9585404600E12198214
:1008330075E9FB906193E0A2E640F2752300EEA216
:10084300E092AF7F01020C45C0E074F2120BE6A206
:10085300AFE433FED2AF9061A5E0F8E5BF5854048E
:10086300600675BFFB1219C480D11208C230F04371
:10087300120907803E8A088B098C0A8D0B780812AF
:1008830008C220F01430E72B74FFFCFBFA747F805E
:1008930022E4FCFBFA7480801AB48008BC00F2BB2B
:1008A30000EF800F50EBF9E4C39AFAE49BFBE49C5E
:1008B300FCE499C6CC18C6CB18C6CA18C6F922E4FC
:1008C300C9C608CAC608CBC6D3330308CCC63392FD
:1008D300F0C3947F402E94184019C9B90704CACBBA
:1008E300CC225025C309CA33CACB33CBCC33CC3348
:1008F300D9F422F4600DC9CCC313CB13CBCA13CAEA
:10090300D9F6CC22E4FCFBFA2214FCFBFA22C3E462
:1009130098F8E499F91209528026C3E49AFAE49B01
:10092300FBE920E7E9120952E498F8E499F922C3B4
:10093300E498F8E499F9120952E498F8E499F9C3B0
:10094300E49AFAE49BFB22EB20E7CFE920E7E0B946
:100953000010BB0008E88AF084F8AAF022E4FBC880
:10096300FA22EB70227B10C833C8C933C93350074E
:10097300C39AC3DBF280069A50012ADBEAC833F438
:10098300C8C933F4C9FA2275F008E4C833C8C933B7
:10099300C933C99AC99B5004C92AC93BD5F0ECFB9A
:1009A300C833F4C8E4C9FA22080808EAC0E0EBC077
:1009B300E086F0E7A4FA180986F0E7A42AFA1809F2
:1009C30086F0E7A42AFA180986F0E7A42AFA19861A
:1009D300F0E7A4FBE5F02AFA190886F0E7A42BFB5D
:1009E300E5F03AFA190886F0E7A42BFBE5F03AFAAA
:1009F30018180986F0E7A4C5F02BFBE43AFA1908A6
:100A0300E7C5F0C6A426F6E5F03BFBE43AFA188600
:100A1300F0E7A4F6E5F00826F6E43B08F6E43A0826
:100A2300F6D0E0FBD0E0FA22080808E630E711121E
:100A3300124A120A43080808C64480C61818182226
:100A4300181818E9799EC608CAC608CBC608CCC6CA
:100A5300C370207996CACBCC7019798ECBCC701326
:100A63007986CC700EF9802ACA33CACB33CBCC3308
:100A7300CC331930E7F2CCCBCA3350147004EA30CC
:100A8300E00DE4CA3ACACB3BCBCC3CCC500209C301
:100A9300E913C6CC182313C6CB18C6CA18C6F92245
:100AA300E4CFC0E0E4CEC0E0E4CDC0E0E4CCC0E0FD
:100AB30075F020E626F608E633F608E633F608E690
:100AC30033F6181818EC33FCED33FDEE33FEEF3339
:100AD300FFC3EC9709ED9709EE9709EF97191919D9
:100AE300400FFFEC97FC09ED97FD09EE97FE1919EE
:100AF30006D5F0BFECF709EDF709EEF709EFF719A3
:100B03001919D0E0FCD0E0FDD0E0FED0E0FF2225B3
:100B130021C582C0E0E52234FFC583C0E0E521C3DF
:100B2300958224F810AF0885832285822180088569
:100B33008322858221D2AFCEF0A3E520F0A37808EB
:100B4300E608F0A3DEFAEFF0A3E58124FAF8E6085D
:100B5300F0A3E608F0A3E608F0A30808E608F0A36C
:100B6300E608F0A315811581D0E0FED0E0F81581E9
:100B730015811581E8C0E0EEC0E02212143CB900F3
:100B830003020BD0E4900501784079138002F0A3AF
:100B9300D8FCD9FA78239000867A01BA000280073C
:100BA300E493A3F608DAF97A407B17900087784F2D
:100BB30079028015E493A3AD82AE838A828B83F09E
:100BC300A3AA82AB838D828E83D8E9D9E775820D80
:100BD3007583F374041210C77582B275832B740086
:100BE3001210C7C0D02521C582C0E0E52234FFC55D
:100BF30083C0E0E521C3958224F310AF08858322E7
:100C03008582218008858322858221D2AFC8F0A303
:100C1300E9F0A3EAF0A3EBF0A37908E709F0A3D87E
:100C2300FAECF0A3EDF0A3EEF0A3EFF0A3D0E0F025
:100C3300A3D0E0F0A3D0E0F0A3E520F0A3E5F0F02B
:100C4300A322852283852182E0C0E0A3E0F9A3E00B
:100C5300FAA3E0FBA37808E0F608A3DFFAE0FCA31D
:100C6300E0FDA3E0FEA3E0FFA3E0C0E0A3E0C0E05B
:100C7300A3E0F5D0A3E0F520A3E0A3F5F010AF08BF
:100C83008583228582218008858322858221D2AFB4
:100C9300D082D083D0E0F8D0E03212124D18181869
:100CA300120AA312134619191922121346191919F4
:100CB300080808E618181820E7E0120AA312124DD4
:100CC30018181822090909E719191920E7DC080877
:100CD30008E618181820E703020AA312124D181881
:100CE30018120AA312124D181818121346191919BB
:100CF3002275F0108E248F258582298583288521EE
:100D030082852283E0CEA3E0CF852982852883EBE9
:100D1300C9EAC8EDCBECCAC3E833C8E933C9EA333F
:100D2300CAEB33CBC3EA9EF527EB9FF526B35004FA
:100D3300AB26AA27EC33CCED33CDD5F0DAAE24AF16
:100D430025221213E3601C1213C56017121451708D
:100D5300071214637001D322C0D01214637006D03B
:100D6300D0B322C32233D0D0501430E0F6C3E79679
:100D73000809E7960809E7960809E796B32220E0F1
:100D8300D5E6970809E6970809E6970809E697B3B1
:100D930022D083D082ECC0E0EDC0E0E493A3FCE476
:100DA30093A3FDED4C600D120EB8EC24FFFCED3463
:100DB300FFFD80EFE493A3FCE493A3FDED4C600DF2
:100DC300120FACEC24FFFCED34FFFD80EFD0E0FD0F
:100DD300D0E0FCE493A3C0E0E493C0E0221213E369
:100DE300601B1213C560161214517007121463604E
:100DF3000CB322C0D01214637005D0D022C32233A7
:100E0300D0D0501330E0EBC3E7960809E796080902
:100E1300E7960809E7962220E0E4E6970809E697B3
:100E23000809E6970809E69722D083D082E9C0E053
:100E3300E493A3C386F0C5F095F0F908E493A38681
:100E4300F0C5F095F0700BE493A3C3994005E90452
:100E53008002A3E475F002A42582F582E5F03583D0
:100E6300F583D0E0F9E493A3C0E0E493C0E02285E6
:100E73002283852182E0A3FEE0A3F5207808E0A386
:100E8300F608DFFAE0A3FFE0A3C0E0E0A3C0E0E0E0
:100E9300A3C0E0E0A3C0E0E0A3C0E010AF088582F8
:100EA300218583228008858221858322D2AFD08346
:100EB300D0820210CDC0E0C3E493960874019396E8
:100EC30018400FE493667008087401936618700065
:100ED3007019A3A3C3E49396087401939618A3A36C
:100EE300400DD0E0D0E0D0E0020DD0A3A3A3A3A394
:100EF300A3D0E0227404800474028000CCC0E0ED2F
:100F0300C0E0E521C39CCCAD2250011D10AF068C7F
:100F1300218D2280068C218D22D2AF121049D0E080
:100F2300FDD0E0FC2274028000CCC0E0EDC0E0E51F
:100F330021C39CCCAD2250011D10AF068C218D2204
:100F430080068C218D22D2AF121027D0E0FDD0E095
:100F5300FC221213E360251213C560201214517092
:100F630003021463080808E76670101819E766702F
:100F73000A1819E76670041819E76622F422C0E01C
:100F830074F2120BE6A2AFE433FED2AFE58BA2E01C
:100F930050057904121736758B00C2E8752300EEED
:100FA300A2E092AF7F01020C45C0E0C0F088F0E4FC
:100FB300936670080874019366187000A8F0A3A3E1
:100FC300700BD0F0D0E0D0E0D0E0020DD0A3A3D0DE
:100FD300F0D0E022D083D082CCC0E0E493A36006BB
:100FE30012106A1470FAE493A360061211CC147001
:100FF300FAD0E0FCE493A3C0E0E493C0E022C0088D
:10100300C3E096F50808A3E096420808A3E09642D9
:101013000808A3E0964208A2D265D033E508700120
:10102300D3D00822CAC0E0E493A3C582CCC582C54D
:1010330083CDC583F0A3C582CCC582C583CDC583CB
:10104300DAE5D0E0CA22CAC0E0E0A3C582CCC582FB
:10105300C583CDC583F0A3C582CCC582C583CDC569
:1010630083DAE6D0E0CA22C0E0E493A3D39C501015
:10107300E493A3C39C400AD0E0D0E0D0E0020FF495
:10108300A3A3A3D0E0227009080808226016181849
:1010930018C6C333C608C633C608C633C608C63324
:1010A300C6D5E0EA22C008C3E096F50808A3E09697
:1010B300420808A3E096420808A3E0964508700199
:1010C300D3D00822C09FF59FE473D09F22D083D052
:1010D30082C09FE493C0E0740193C0E0740293F56F
:1010E3009F22C0E0C0D0E8C0E0A8A8D2AFC2C775B5
:1010F3002300E8A2E792AFD0E0F8D0D0D0E03225C9
:1011030021F58210AF08F521400C15228008F52146
:1011130040021522D2AF8522832200C0D0252110A0
:10112300AF08F521500C05228008F5215002052255
:10113300D2AFD0D0227404800A7403800674028074
:10114300027401C0E0F404121102D0E01213FF2272
:10115300BB0102E722C082C08389828A83BB00036A
:10116300E08002E493D083D082226016080808C688
:10117300C313C618C613C618C613C618C613C6D5D6
:10118300E0EA22C3E0C696F608A3E0C696F608A3F3
:10119300E0C696F608A3E0C696F6222521F8E435C4
:1011A30022F9222521FAE43522FB222521FCE4350C
:1011B30022FD22252110AF08F521400C15228008BD
:1011C300F52140021522D2AF22C0E0E493A36C7054
:1011D30009D0E0D0E0D0E0020FF4A3A3D0E022C313
:1011E300E7960809E7960809E7960809E796A2D261
:1011F30065D03322C3E09608A3E09608A3E09608DF
:10120300A3E096A2D265D03322E76670100809E7FF
:1012130066700A0809E76670040809E76622E06653
:10122300701008A3E066700A08A3E066700408A3C0
:10123300E06622C3E096F008A3E096F008A3E096E8
:10124300F008A3E096F022181818E4C396F608E411
:1012530096F608E496F608E496F622C3E697F608AF
:1012630009E697F60809E697F60809E697F62218BD
:101273001818E60846087009E626087005E633F4F0
:10128300220822191919E70947097009E727097084
:1012930005E733F4220922C3E49396087401939675
:1012A3000874029396087403939622E026F008A329
:1012B300E036F008A3E036F008A3E036F02270042D
:1012C30022600D18C6C333C608C633C6D5E0F4186A
:1012D30022E657F60809E657F60809E657F608091D
:1012E300E657F622E627F60809E637F60809E63751
:1012F300F60809E637F622E026F608A3E036F608F4
:10130300A3E036F608A3E036F622E056F608A3E09B
:1013130056F608A3E056F608A3E056F622E647F68B
:101323000809E647F60809E647F60809E647F622FC
:10133300E056F008A3E056F008A3E056F008A3E057
:1013430056F022E4C397F709E497F709E497F709FE
:10135300E497F722600D08C6A2E713C618C613C6A2
:10136300D5E0F322C6F4C608C6F4C608C6F4C60818
:10137300C6F4C622C3E09608A3E09608A3E0960845
:10138300A3E09622C3E7960809E7960809E79608BB
:1013930009E7962275D00075813F752101752205F5
:1013A30000020B7E600C08C6C313C618C613C6D54D
:1013B300E0F422E6F008A3E6F008A3E6F008A3E6CB
:1013C300F022E7094709C3134709336002E733F4FF
:1013D30022E0F608A3E0F608A3E0F608A3E0F6226D
:1013E300E6084608C3134608336002E633F4228056
:1013F3000100E9F874FF28F90470F622CAC0E0E698
:10140300F0A308DAFAD0E0FA22E0F8A3E0F9A3E0C7
:10141300FAA3E0FB22E8F0A3E9F0A3EAF0A3EBF0E0
:1014230022EAF0A3EBF0A3ECF0A3EDF022E0FAA3A1
:10143300E0FBA3E0FCA3E0FD22E5C754F84401F57B
:10144300C77901222521F582E43522F58322E62698
:1014530018461846184622C2AF75D69F02000022CE
:10146300E727194719471947221210D04CD0021207
:1014730010D0AFD0021210D0F3D0021210D08DD101
:10148300021210D00BD2021210D03ED2021210D090
:101493004CD3021210D06CD3021210D0C0D302125C
:1014A30010D0A8D4021210D0AAD6021210D04CD752
:1014B300021210D09CD9021210D020DA021210D0DE
:1014C30022DD021210D056DF021210D08EDF02127C
:1014D30010D0EDE0021210D0F7E0021210D046E176
:1014E300021210D018E3021210D0F5F4041210D037
:1014F30029F5041210D07CF5041210D07FF60412E3
:1015030010D0EAF1011210D066F2011210D099F254
:10151300011210D0C7F2011210D005F3011210D03E
:1015230040F5011210D05FF5011210D0A4F501129D
:1015330010D03AF6011210D086F6011210D01AF725
:10154300011210D0F2F7011210D04EF8011210D090
:10155300ACF8011210D029F9011210D05FF9011271
:1015630010D0AAF9011210D0D0F9011210D060FAEC
:10157300011210D0F7FA011210D043FB011210D060
:1015830074FB011210D0ABFB011210D031FD01121C
:1015930010D0FBFD011210D0CBFE011210D0F3D4FA
:1015A300031210D082D5031210D0E8D5031210D045
:1015B3000DD7031210D097D7031210D01AD80312E5
:1015C30010D057D8031210D0E9D8031210D07CD909
:1015D300031210D04FDA031210D02CDC031210D0F8
:1015E300E0DC031210D0CEDD031210D069DE03124B
:1015F30010D0BEDE031210D032DF031210D03EE251
:10160300031210D068E4031210D065E5031210D062
:10161300A3E6031210D0AEE6031210D0A5D0041235
:1016230010D0D1D0041210D0F1D0041210D018D1A0
:10163300041210D05FD2041210D092D2041210D030
:1016430050D3041210D0EAD3041210D0B2FF041204
:1016530010D0B7FF041210D0EAFF041210D0D9F64D
:10166300041210D0F6F6041210D045F7041210D06D
:1016730095F7041210D0D0F7041210D0D6F7041245
:1016830010D010E8041210D0D7E8041210D0E9E803
:10169300041210D05CE9041210D01EFF021210D005
:1016A3002FFF021210D0CDFF021210D0D8FF02126A
:1016B30010D0F0FF021210D0ED7F001210D0C086C0
:1016C300051210D00282051210D01282051210D01A
:1016D3002782051210D0DB82051210D0008005127C
:1016E30010D08380051210D0E980051210D0AFE529
:1016F300041210D0CDE5041210D0F5E5041210D079
:1017030019E6041210D03CE6041210D074E6041259
:1017130010D09CE6041210D0D7E6041210D085E74F
:10172300041210D04AFB041210D0D1FB041210D0C3
:10173300DAFB041210D001FC041210D049FC04128D
:1017430010D060FC041210D05EC9041210D06CC912
:10175300041210D0E5C9041210D0BDCA041210D06F
:1017630080CC041210D0CFCC041210D00DCD0412B3
:1017730010D0F87F001210D003F1041210D03BF107
:10178300041210D086F2041210D00AF3041210D0FF
:1017930087B3041210D0B3B3041210D0F7B50412F8
:1017A30010D037B6041210D077B6041210D08BB60F
:1017B300041210D0A4B6041210D096B7041210D09D
:1017C3003BB8041210D04FB8041210D033FE0312EA
:1017D30010D057FE031210D070FE031210D0A2FED9
:1017E300031210D0D2FE031210D0FFFE031210D04A
:1017F30009FF031210D06BFF031210D07AFF0312FC
:1018030010D084FF031210D091FF031210D00AE30B
:10181300041210D02AE3041210D069E3041210D08A
:1018230084E3041210D0A3E3041210D009E40412D9
:1018330010D012E4041210D06FE4041210D07EE42E
:10184300041210D0A2E4041210D063E5041210D0E5
:1018530070E5041210D081E5041210D0D48405126F
:1018630010D01C85051210D04885051210D0D6AEB5
:10187300041210D030B0041210D03EB0041210D0B5
:1018830051B0041210D066B0041210D07BB0041211
:1018930010D08EB0041210D002B1041210D067B170
:1018A300041210D0EFB1041210D06BB2041210D096
:1018B3002FB3041210D03FB3041210D04EB304124E
:1018C30010D03B84051210D05F84051210D087849A
:1018D300051210D0AF84051210D06DEA041210D097
:1018E30094EA041210D0B2EA041210D025EB0412C9
:1018F30010D037E0041210D050E0041210D05CE096
:10190300041210D070E0041210D08EE0041210D034
:1019130098E0041210D0A2E0041210D0B5E0041233
:1019230010D03BE1041210D0B0E1041210D0DFE17B
:10193300041210D02DE2041210D07CE2041210D055
:1019430097E2041210D0A1E2041210D0B2E2041202
:1019530010D0F5E2041210D0C885051210D01386FA
:10196300051210D0929F041210D0BC9F041210D005
:10197300D99F041210D0EC9F041210D002A00412BD
:1019830010D060A0041210D098A0041210D08CA420
:10199300041210D0D1A5041210D004A6041210D042
:1019A30067A6041210D0C7A7041210D0EFA7041221
:1019B30010D004A8041210D014A8041210D058A8F0
:1019C300041210D0B3A8041210D0C3A8041210D06C
:1019D300BD7E001210D0D77E001210D0FF7E001201
:1019E30010D0187F001210D03C7F001210D05A7F05
:1019F300001210D0717F001210D09F7F001210D000
:101A0300BA7F001210D0E182051210D0258305128F
:101A130010D020CD041210D030CD041210D035CE0A
:101A2300041210D067CE041210D097CE041210D037
:101A3300BACE041210D0D1CE041210D00BCF0412A0
:101A430010D070CF041210D0B2CF041210D0F1CF47
:101A5300041210D022D0041210D04DD0041210D092
:101A6300B4F8041210D0C6F8041210D0DAF9041234
:101A730010D0DDF9041210D0A6FE041210D0DCFE43
:101A8300041210D0F2FE041210D034FF041210D04E
:101A930044FF041210D088FF041210D092FF0412E6
:101AA30010D048F7031210D08BF7031210D0F0F7C1
:101AB300031210D00DF8031210D0AFF8031210D098
:101AC300B8F8031210D0FDF8031210D026F9031250
:101AD30010D033F9031210D0AEF9031210D039FA33
:101AE300031210D07EFA031210D0C9FA031210D0D9
:101AF3002EFB031210D051FB031210D0C2FB0312B2
:101B030010D017FC031210D052FC031210D087FC24
:101B1300031210D099FC031210D0ABFC031210D0A7
:101B2300CAFC031210D0D3FC031210D086FD03129B
:101B330010D0C9FD031210D007FE031210D0A4FF6A
:101B4300011210D00AFA041210D0BEEC041210D005
:101B5300F4EC041210D03CED041210D095EE0412F4
:101B630010D060C1031210D079C2031210D0B3C2D7
:101B7300031210D061C4031210D08FC4031210D00B
:101B8300F5C6031210D035C7031210D0D9C80312FB
:101B930010D069C9031210D0BDC9031210D05FCA97
:101BA300031210D0A1CA031210D0E3CA031210D03B
:101BB30040CC031210D08ECD031210D0C5CF031228
:101BC30010D0F3CF031210D01AD0031210D023D0A9
:101BD300031210D07AD0031210D015D1031210D0F3
:101BE3001DD4031210D0A4D4031210D09383051272
:101BF30010D0AB83051210D0B583051210D0098421
:101C0300051210D063B8041210D079B8041210D0A2
:101C13001AB9041210D059B9041210D076B90412AB
:101C230010D0A7B9041210D0F4B9041210D027BAF7
:101C3300041210D062BA041210D05DBC041210D08A
:101C4300C5BC041210D00281051210D061810512A7
:101C530010D09F81051210D0E081051210D090FDA5
:101C6300041210D04EFE041210D0B9A5021210D0E7
:101C7300C5A5021210D027A6021210D031A6021257
:101C830010D0C2A6021210D0FEA6021210D0F8A7DE
:101C9300021210D044A8021210D0D2A8021210D0FF
:101CA30050A9021210D004AB021210D02FAD0212B1
:101CB30010D06DAE021210D0A9B0021210D00DB226
:101CC300021210D0C4B2021210D0B0B7021210D058
:101CD300A4B8021210D048B9021210D06DB9021282
:101CE30010D004BA021210D01ABA021210D091BA4C
:101CF300021210D0B0BA021210D0D9BA021210D008
:101D03006FBC021210D090BC021210D036BD02126A
:101D130010D07DBD021210D0EFBD021210D07DBED7
:101D2300021210D0D9BE021210D04FBF021210D02F
:101D3300D0C0021210D029C3021210D0B0C30212B5
:101D430010D0DAC3021210D0F3A8041210D0B9A92C
:101D5300041210D0A2AA041210D02CAD041210D079
:101D630049AD041210D06BAD041210D01CD4041270
:101D730010D0D6D4041210D03CD5041210D0E4D520
:101D8300041210D09CAC031210D0CBAC031210D0B1
:101D930043AD031210D046AE031210D0A2AE03120D
:101DA30010D019B0031210D035B0031210D087B081
:101DB300031210D0CAB0031210D0DDB0031210D03A
:101DC3002FB1031210D0EAB1031210D064B2031280
:101DD30010D08EB2031210D0C6B2031210D042B488
:101DE300031210D01BB5031210D064B6031210D027
:101DF30037B7031210D0BFB7031210D007B80312BE
:101E030010D021B8031210D068B8031210D088B8CC
:101E1300031210D01EB9031210D0A4B9031210D0AC
:101E2300FEB9031210D042BA031210D0D3BC03126E
:101E330010D0F6BD031210D032BE031210D024BF4F
:101E4300031210D04CBF031210D04FBF031210D097
:101E530059BF031210D06CBF031210D0EBBF031293
:101E630010D021C0031210D04DC0031210D074C083
:101E7300031210D098C0031210D009C1031210D05E
:101E830017C1031210D04AC1031210D04B8505129B
:101E930010D05785051210D08B85051210D0F07F16
:101EA300001210D08296031210D0A596031210D000
:101EB300EB97031210D03498031210D09C9803129E
:101EC30010D0FA98031210D0FD98031210D049993C
:101ED300031210D0BC99031210D0449A031210D0ED
:101EE300479A031210D0D19A031210D0129B0312F7
:101EF30010D0F59E031210D08EA0031210D0ECA0C8
:101F0300031210D067A4031210D0A0A5031210D09F
:101F13000FA7031210D0ADA7031210D0BD9E041259
:101F230010D009AB031210D0EDE6031210D097E7DF
:101F3300031210D0FDE7031210D016E8031210D0DD
:101F430091CF021210D0E8E8031210D038E903123F
:101F530010D09FE9031210D018EB031210D046ECF7
:101F6300031210D0CBEC031210D0D1EE031210D019
:101F73007AEF031210D023F0031210D0E5F003120E
:101F830010D08EF2031210D036F4031210D0E7F4FF
:101F9300031210D0FFF5031210D0ADE4021210D0DB
:101FA30021E5021210D069E5021210D0F8CD021219
:101FB30010D0F6E5021210D040E6021210D078E6F7
:101FC300021210D0F6E6021210D050E7021210D01F
:101FD300A4E8021210D035E9021210D08DE90212E2
:101FE30010D0A7E9021210D0CFE9021210D027EACD
:101FF300021210D096EC021210D0B5EC021210D0DF
:1020030099ED021210D0C9EE021210D046EF02125F
:1020130010D095EF021210D0F6EF021210D09CF000
:10202300021210D06AF2021210D06AF3021210D018
:10203300E8F4021210D0C9F6021210D02FF90212DE
:1020430010D0DFFA021210D0AFFB021210D01DFC29
:10205300021210D034FC021210D02CFD021210D048
:102063001CFE021210D087FE021210D080DA041276
:1020730010D0CCDB041210D089DC041210D0EDDCBC
:10208300041210D05AD7041210D075D7041210D0EE
:10209300B9D7041210D0DFD7041210D005D8041218
:1020A30010D01DD8041210D080D8041210D095D8A7
:1020B300041210D0B8D9041210D0C1D9041210D010
:1020C300CAD9041210D0D3D9041210D0DDD9041206
:1020D30010D0D2BC041210D0D1C0041210D0D6C07C
:1020E300041210D0D8C0041210D082F3041210D0FE
:1020F300A286051210D061DD041210D072FC041206
:1021030010D09BFF031210D0F4EE041210D0768689
:10211300051210D073C5041210D01F86051210D0FB
:102123002F86051210D03FC1041210D00080021276
:1021330010D03380021210D09F80021210D03A8147
:10214300021210D0D781021210D01C82021210D0BA
:102153003E82021210D05782021210D07D820212E8
:1021630010D09F82021210D0DD82021210D0218380
:10217300021210D04383021210D0A583021210D092
:102183006C84021210D02385021210D0958502129E
:1021930010D06086021210D0B386021210D01987B5
:1021A300021210D05387021210D0A587021210D04A
:1021B3001388021210D07E88021210D08188021276
:1021C30010D00289021210D09989021210D0198AF4
:1021D300021210D0388A021210D09C8B021210D037
:1021E300A98B021210D0B58C021210D0C28C02122D
:1021F30010D0CB8C021210D0A38E021210D0BD8F40
:10220300021210D03690021210D0A890021210D0F1
:10221300CA90021210D05E91021210D032930212B1
:1022230010D00997021210D01D97021210D02D97CB
:10223300021210D03797021210D04097021210D01A
:102243004997021210D05397021210D080970212AE
:1022530010D0A997021210D0B497021210D0D897B9
:10226300021210D0FC97021210D06698021210D0FE
:10227300AC98021210D0C998021210D046990212DB
:1022830010D07D99021210D0BC99021210D0099A75
:10229300021210D08F9A021210D05D9C021210D03D
:1022A300E09C021210D0C49D021210D02BA0021287
:1022B30010D084A0021210D0CEA0021210D029A2F6
:1022C300021210D05EA2021210D0B0A2021210D0DD
:1022D30065A3021210D014A4021210D051A402124A
:1022E30010D0E6A4021210D052A5021210D0003270
:1022F300001210D03232001210D06032001210D00F
:102303003634001210D01635001210D06E3500127C
:1023130010D0A936001210D0F536001210D01E3A94
:10232300001210D0113D001210D0613E001210D0E7
:10233300F73E001210D0033F001210D0353F0012B9
:1023430010D0B840001210D06942001210D0FD42E4
:10235300001210D04043001210D0BE43001210D020
:10236300DB43001210D00B44001210D04044001283
:1023730010D01045001210D0B945001210D03F48BC
:10238300001210D05F49001210D04A4A001210D038
:10239300CC4A001210D0004F001210D03D4F001253
:1023A30010D0954F001210D0C84F001210D03250E9
:1023B300001210D06850001210D0F350001210D049
:1023C3004B51001210D02252001210D0DB520012D7
:1023D30010D07653001210D07E56001210D09A57A8
:1023E300001210D03D5B001210D0315C001210D0EF
:1023F300345C001210D0635C001210D0695E0012CE
:1024030010D0425F001210D0855F001210D0DB6045
:10241300001210D01A61001210D0A361001210D064
:10242300D761001210D09C62001210D0B464001265
:1024330010D02565001210D06565001210D0F36529
:10244300001210D01567001210D0D767001210D0F9
:10245300DE69001210D0F669001210D00A6A001269
:1024630010D0426A001210D0706A001210D0EF6BC5
:10247300001210D0146D001210D0716D001210D024
:10248300236E001210D04A6E001210D0116F00128A
:1024930010D0A96F001210D0CF71001210D00472A7
:1024A300001210D06772001210D09673001210D071
:1024B3003E74001210D06F74001210D08774001293
:1024C30010D01675001210D0CA77001210D0A2795E
:1024D300001210D0BE79001210D0DA79001210D099
:1024E300A87A001210D09B7E001210D00888011227
:1024F30010D03A88011210D0298C011210D0758C9B
:10250300011210D0BB8C011210D05D8D011210D0BE
:10251300B98D011210D0FE8D011210D0458F01121A
:1025230010D05990011210D04894011210D0CC94BD
:10253300011210D0D995011210D03596011210D086
:102543002598011210D09A98011210D0A498011264
:1025530010D0B198011210D0DC98011210D0C39999
:10256300011210D06D9A011210D0EB9A011210D003
:102573000B9B011210D0349B011210D0569B0112F9
:1025830010D0B69D011210D07C9E011210D0C19EB6
:10259300011210D03E9F011210D0EF9F011210D0F4
:1025A30021A0011210D067A0011210D0A3A0011224
:1025B30010D0F3A0011210D047A1011210D09DA199
:1025C300011210D0E9A1011210D056A2011210D0AD
:1025D300D1A2011210D09CA4011210D09CA501120B
:1025E30010D0C1A6011210D000AA011210D013AD51
:1025F300011210D0D0AD011210D014AE011210D0C0
:10260300C4AF011210D0D8AF011210D0E2AF011243
:1026130010D0ECAF011210D0F8AF011210D014B0EB
:10262300011210D0BFB0011210D0FEB0011210D0B1
:1026330008B1011210D012B1011210D082B10112EF
:1026430010D0CDB1011210D0E2B2011210D03EB3BE
:10265300011210D0BFB3011210D07EB4011210D0FA
:1026630087B5011210D0BBB6011210D0A9B7011261
:1026730010D0C1B7011210D01CB8011210D03AB853
:10268300011210D082B8011210D0A9B8011210D0D3
:1026930044B9011210D00ABA011210D09CBA011227
:1026A30010D016BB011210D030BC011210D0DDBC0B
:1026B300011210D005BE011210D055BE011210D068
:1026C300B9BE011210D01BBF011210D049BF0112B5
:1026D30010D06DBF011210D0A2BF011210D0D3BF12
:1026E300011210D006C0011210D026C0011210D062
:1026F3008EC0011210D082C1011210D0DDC10112AF
:1027030010D006C2011210D08EC2011210D011C314
:10271300011210D03CC3011210D021C4011210D0F9
:102723000080041210D03880041210D05980041293
:1027330010D09B80041210D0FD80041210D00781AA
:10274300041210D01781041210D05281041210D039
:102753003285041210D01F87041210D00589041289
:1027630010D09C89041210D03E8A041210D023C6C4
:10277300011210D0A1C6011210D0FDC6011210D053
:1027830048C7011210D063C7011210D08EC70112BF
:1027930010D0ABC7011210D0B7C7011210D04EC969
:1027A300011210D067C9011210D0ECC9011210D068
:1027B300FFC9011210D01ECA011210D0C2CA0112E1
:1027C30010D043CC011210D0F6CD011210D08CCE14
:1027D300011210D08FCE011210D0FFCE011210D0F3
:1027E3001DCF011210D0B4CF011210D0FCCF0112B3
:1027F30010D0FFCF011210D0C5D0011210D032D1AA
:10280300011210D058D1011210D0E3D1011210D00F
:1028130001D2011210D047D2011210D0FBD2011203
:1028230010D045D3011210D074D3011210D0D1D3DC
:10283300011210D006D4011210D032D4011210D0DC
:1028430040D4011210D08DD4011210D0FDD4011246
:1028530010D046D5011210D092D5011210D0BED59A
:10286300011210D0C9D5011210D0E7D5011210D032
:10287300D2D6011210D0DCD6011210D017D7011214
:1028830010D027D7011210D030D7011210D084D71F
:10289300011210D098D7011210D0C7D8011210D04E
:1028A300DED8011210D0F3D8011210D081D9011251
:1028B30010D0C6D9011210D052DA011210D05DDA4D
:1028C300011210D09FDB011210D0BADB011210D01D
:1028D30006DC011210D075DC011210D0AEDC01123F
:1028E30010D0C8DC011210D00ADD011210D0DADFDB
:1028F300011210D087E0011210D0F4E0011210D0C1
:1029030034E3011210D04CE3011210D04FE3011253
:1029130010D05BE3011210D06FE3011210D077E304
:10292300011210D0AAE3011210D0ACE4011210D0AE
:1029330033E5011210D0A3E5011210D025E60112F0
:1029430010D0E6E6011210D005E7011210D0A6E779
:10295300011210D003E8011210D006E8011210D0C2
:1029630033E8011210D048E8011210D0BCE801127C
:1029730010D00BEA011210D011EB011210D09CEB16
:10298300011210D0B7EC011210D07FED011210D05C
:10299300B0ED011210D0D3ED011210D0DCED011215
:1029A30010D00BEE011210D09BEE011210D051EF9C
:1029B300011210D0C6EF011210D06DF0011210D029
:1029C300E2F0011210D019F1011210D057F10112E7
:1029D30010D08DF1011210D009CF021210D0269D14
:1029E300041210D0689C041210D0CB9B041210D098
:1029F300C19B041210D06B9B041210D0579B04127E
:102A030010D0B69A041210D0BA99041210D0E498D8
:102A1300041210D0ED96041210D04096041210D078
:102A2300D295041210D0BCCE021210D092E8031239
:102A330010D05296031210D04896031210D099CB9F
:102A4300021210D052C8021210D0DD95031210D01A
:102A53003194031210D0EF93031210D00F9303128B
:102A630010D0F992031210D0BA92031210D015921B
:102A7300031210D00F8F031210D0FD8C031210D04D
:102A8300CA8C031210D0658C031210D0F88B03127A
:102A930010D0B78B031210D0F08A031210D08B8A98
:102AA300031210D0368A031210D0D989031210D022
:102AB300B088031210D04D88031210D097870312E9
:102AC30010D09287031210D08687031210D0398456
:102AD300031210D01384031210D093C7021210D024
:102AE300F0C6021210D0AFC6021210D090C6021266
:102AF30010D05DC6021210D048C6021210D01DC6F7
:102B0300021210D0B883031210D06383031210D0C3
:102B13002483031210D01183031210D04C9F04128C
:102B230010D00683031210D0E282031210D0F1807A
:102B3300031210D07080031210D08FCE021210D067
:102B43002C80031210D0ADE5021210D000800312C6
:102B530010D07495041210D03695041210D0099534
:102B6300041210D0D594041210D07494041210D00F
:102B73005C94041210D03894041210D00191041202
:102B830010D0CD8E041210D0B48C041210D0438C0C
:102B9300041210D0F28B041210D0AC8B041210D09C
:102BA300158B041210D0149F041210D0B8A8030080
:102BB300000080FB000022E4738F000100031887EC
:102BC300000100011835000400CA1725000200CED9
:102BD3001726000200D01727000200D21728000191
:102BE30000DC1729000100DD17840004002E158680
:102BF3000001004E172A000100DE172B000100DF41
:102C0300172C000100E3172D0008003A152E0001D0
:102C130000E4172F000100E51730000100E617312B
:102C2300000100E7173200010042153300010043A1
:102C33001534000100E8173600010044153800017F
:102C430000E91739000100E21783000200FF176350
:102C5300000100501564000100E01765000100E168
:102C6300176D00010051157100080032156600014F
:102C730000FE1743000100EF1744000200F0174560
:102C8300000100F21746000200F31747000800484E
:102C93001548000100F5174B000100F61704000169
:102CA300000218A10001000618370001000518886A
:102CB30000010004183C00010045153D000100EA35
:102CC3001749000200F7176700010052154D000273
:102CD30000F9174E000100FB174F000200FC173EDE
:102CE300000100EE1751000100461552000100ECEF
:102CF3001753000100ED17540001004715000000B1
:102D03000000000001363601010001020100010349
:102D13000100010401060605020000070100340852
:102D230001000F090401010D0100FF0E0800001747
:102D3300020000190100FF1A0100011B0100FE1C23
:102D43000100081D0200001F0100012001000121F4
:102D53000200002301000F240200002601000127C6
:102D6300010008280200FF2A0100072B0102402C62
:102D73000100002D0100012E0100012F0100FF3091
:102D8300010B1D310800003A0100083B01000F3C14
:102D93000100013D0100FF3E040000420400004623
:102DA3000400004A0400004E0400005204000056D0
:102DB3000400005A040000000000002001068800FF
:102DC30000010020010788000002002001028800A2
:102DD30000030020010388000004004201948600E0
:102DE30000050042014686000006004201168600E7
:102DF30000070030010488000000404201168600ED
:102E030000FDFF2101FE8701002000200556170168
:102E13000021002005571701000002210558170063
:102E230004000021052214020400002905141403E0
:102E330004000029051614030410002905181403BF
:102E430004140028019B170504000021051A140827
:102E530004000021051C140804000221051E1408A7
:102E63000401022105581701037103010301030142
:102E73000301030103220302030103100300030000
:102E830003000300030003000300034203000324C1
:102E9300030603000300030403120325032303258E
:102EA3000323030403040300030003000344030098
:102EB300030003230300036503210035038103009B
:102EC3000305030003000300030003250323030397
:102ED3000271023001600211027002010202020259
:102EE300028002100261023A00410063027302721F
:102EF30002620243020002130238000002000204CD
:102F0300021202000200020002000204020402375D
:102F13000037003C0244020002390000020002654F
:102F230002000235028102000205028202830200CE
:102F330002010171010101010111010101310101CD
:102F43000101018001100161013B00140063017361
:102F5300017201620143010001130106013D0135C4
:102F63000004011201000100010001000104010439
:102F730001330133013C01440132013600000100F9
:102F83000165010001350081010001050182018312
:102F93000100010300710030016000110070003175
:102FA300022003500480001000610000001400633D
:102FB300007300720062004300000013000600006B
:102FC30000000004001200000000000000000004E4
:102FD300000400370037003C0244000000000000FA
:102FE30000000065000000350081000000050000BE
:102FF300008300000036000100060000000F0000FF
:10300300000000000000000000000003FFFF0000BC
:103013000403FFFF0000FFFF0FF4010005C40403D6
:1030230020000100000B000000000000000003016D
:103033000F0000000000000000000000000000007E
:10304300000000000000000000000000000000007D
:10305300000000241D421D2A1D881C0000000000E2
:103063000000000000000000000000301D881C006C
:10307300000000361D881C00000000000000003C1A
:103083001D881C000000000000000000000000007C
:10309300000000000000000000000000000000002D
:1030A300000000000000000000000000000000001D
:1030B30000521F0100521F0200C81E0280C21E03DD
:1030C30000CE1E0400D41E0480DA1E0500E01E0696
:1030D30000EC1E3100FE1E3300041F34000A1FFFE4
:1030E300FF0000030003000400080010001F003E5F
:1030F300007B00F600EC01D703AF075D0FB91E712B
:103103003D000007ECFDFDFDECDCDCCCBCACAC9C75
:103113009C8C7C7C6C6C5C5C5C4C4C3C3C2C2C1C1C
:103123001C03EAF5E5D5D5C5B5A5959585857575D2
:10313300656555554545353525251515050A642518
:10314300022E25053A250734250C16250D2225FFC9
:10315300000000160F00000B150B020002220F33B4
:1031630000000E0F5A6967426565416C6C69616EB8
:1031730063653039D0D1D2D3D4D5D6D7D8D9DADB19
:10318300DCDDDEDF303016181920231A1C1E300058
:10319300034D4C4651181A2505020001191618163D
:1031A3001618230300303017181921301B1D1F3048
:1031B300003C40423A3F3F392F47300C0E020B048C
:1031C3000B0A0708000F02040201010101090202B0
:1031D30004000029052014E803000000BE040A24AB
:1031E300000300E80301000409100116031E1E0377
:1031F3000A0C04050828020C050815FF0FC082C03D
:103203008312150290157D7406F0A37423F09015B4
:103213007F740CF0A37423F09015817412F0A374DF
:1032230023F09015837418F0A37423F0025F3B74AA
:10323300F7120B12901571E4F0E9901570F07C48C9
:103243007D157A727B15121C589017F5E090157A4C
:10325300F090157B7432F0A374150241C874F01218
:103263000B12EAFEEBFF548070030233D19015700A
:1032730012425D70030233CAEA241B125AC8707CDF
:10328300EA241F125AC864137002A3E0706E8A8284
:103293008B8312341F90158B12505A750A00750BCD
:1032A30000800D12409E12713A121B5CAA0EAB0FE6
:1032B300EA4B60488A828B83E0650C7004A3E06567
:1032C3000D702C8A828B83A3A3A3A3E0F50EA3E046
:1032D300F50FE50A450B8A828B83A3A3A3A360C3DF
:1032E3001243A0850A82850B83A3A3A3A380B78A75
:1032F3000A8B0B8A828B8312505680B4E508242AEA
:10330300125AC8FCE5082402F8E43509F9E8FAE999
:10331300FB90158B123506A3A3E06402703C8A82EE
:103323008B8312505A800B88828983A3A3A3A31291
:1033330043A0E849601F88828983E06A7003A3E0A1
:103343006B70E488828983A3A3E06C70DA9017FB27
:10335300125DF8806BECF91223428508828509839C
:10336300E06401704FE50824181234081211441266
:1033730066E2120EF7E5082412123408121144E52E
:1033830008124251121140E508240B1266E6120E90
:10339300FBE50824171241EEE5082402FCE4350995
:1033A300FDE5082419FAE43509FB122B88740A1287
:1033B300111D800CE064027007AA08AB09122420D7
:1033C300AA08AB09121AC6EEFAEF6480802DEA54FC
:1033D30002600C90185A7401F0EA6402FA8023EA3E
:1033E3005408601A12233CEA4B700B90158D12653A
:1033F300BD7A08123415EE6408FAEFFB80047A00F4
:103403007B00026D6CF582E43509F583E0F50A78FB
:103413000A22FB901570E0F9121C2822A3A3E0F501
:103423000CA3E0F50D227B00901570E0F9121C1C33
:1034330074042274F4120B128A088B098A828B8318
:10344300A3A3A3124E521241F938F583E02409FADB
:10345300126D0470030234F98A828B837402124E54
:10346300C7850882850983123506E8F0A3E9126946
:103473007E8A828B83A3A3A3A3A3A3A3A3F0E508BC
:103483002403F8E435091234FB1241F93AF583E0D9
:103493008E828B83A3A3A3A3F0EE2409FAE43FFB5C
:1034A3008E828F83A3A31260AAF5838882E0A2E5AC
:1034B3008E828F83A3A3A3A3A3500474018001E48A
:1034C300F0E5082403F582898312505AEA1255DB8A
:1034D3003BF583126CCB12113C1241F83B12619CF9
:1034E3008E828F83A3A3127E7A12111DEEFAEFFB55
:1034F300901570126D518016F98882F583E0FAA356
:10350300E0CA221251F7A3A322740212111D7F04F1
:10351300020E7274F2120B128A088B09ECFAEDFB9D
:10352300740E121447E0FC1215388A0C8B0DAE0C86
:10353300AF0DEA4F6030AC08AD09121526E96026DD
:10354300AC08AD09EEFAEFFB12152CE970148E826C
:103553008F8312438DFAEFFB121520AA08AB0912D1
:1035630015507900800279B402514674F0120B129F
:1035730074F61211B6EAFEEBFF8C088D09750FB3D2
:10358300852182852283E4F0750E008002050E906A
:1035930031F6E493F8E50EC3984003023695AA0E7C
:1035A3007B001215748A0A8B0BEA4B60E08A828BCC
:1035B30083A3A312369C28F0F8C3EE98EF9400502F
:1035C300CC7C157D007900AA08AB09121AAE850AD6
:1035D30082850B83A3A3A3A3127177E0F8EEC398AC
:1035E3002925E0F8E433F9E50A28F582E50B39F5F6
:1035F30083A3A3A3A3A3A3124203A3125C1F8A0C56
:103603008B0DAC0CAD0DAA08AB09121C58850A82B0
:10361300850B83A3E06401700A1266E2740112420F
:1036230015804474011211AE850A82850B831250F2
:103633005812155CE9603D7409121447E0C0E012AA
:1036430066E2D0E0F07409121447E0640370137467
:10365300011211AEE508240BFAE43509FB121C58DC
:10366300801274011214471243A0E508125C053559
:1036730009127138850A82850B831266EE12421590
:10368300A3A3E0C0E0E50824141266E6D0E0F075D9
:103693000F00A90F740A026D69A3A3A3E0F88521A3
:1036A30082852283E02274F7120B12E9FE8A828B51
:1036B30083A3A3A3A3A3A3E0540860338A828B83C9
:1036C300A3A3A3A3A3A3E0540260218A828B83A3B1
:1036D300A3A3A3A3A3A3A3A3E06406600F74E96E4B
:1036E300600A74CD6E600574F06E700312232402B9
:1036F3004A4574F0120B1274EF1211B6740F1214C0
:10370300471264A17408121447E9F0ECFEEDFF744C
:103713000512144712480D124A31A3E0F912154459
:1037230074061214471264A1740612144712566CDD
:1037330070030239B012423DE0FA7406121447E0F6
:10374300F9122264123A10F8A3E0F9E8497003026F
:1037530039B0EE2403F50AE43FF50BEE2406F50831
:10376300E43FF5097C00850882F58312505A850AE7
:1037730082850B83E0F912154A740312144712640D
:10378300A1850A82850B83E0C0E08521828522839F
:10379300123A09D0E0125781F985218285228312DA
:1037A30040A51252D312369FFAA3E0CA2407F5822A
:1037B300E43AF583E8F0A3E41264AC2406F582E46A
:1037C30038F583E4127144124E4612113CEE124155
:1037D300F93F12619C7403121447124E52240912CA
:1037E3007E7412111D74291214471271711235005F
:1037F3001257943A127138742B121447E0C0E085C3
:103803002182852283125633D0E0F07402121447CA
:10381300E4F0742512144778081213D4023907749C
:10382300031214471261648882F5831239F8A3A343
:10383300A3125C2AFB121562850E82850F83A3EA0D
:10384300F0A3EBF07403121447123A09A31239F8E8
:10385300125E39A2E6500F850E82850F83A3A3A3C0
:10386300A3A3E0D2E1F07405121447E0706B850E58
:1038730082850F83A31243A09015CBE0687003A346
:10388300E0697055850E82850F83A3A3A31241D8E7
:10389300750C00780C12114478081211387429122F
:1038A3001447E0F50C780C121144742712144712D4
:1038B3000EFB9015D8120EFB7900741912144712DF
:1038C300502A122468740A12111D850E82850F83F3
:1038D300A3A3A3A3A3E04405F07402121447E004D6
:1038E300FC8E828F831250548E828F83A3A3A3E016
:1038F300F912154A74031214471264A174021214C4
:1039030047E004F0740312144712566C60677402A4
:10391300121447E0FA74061214471243A0C3EA983C
:10392300E49950517402121447123CE285218285B6
:103933002283E028F8A3E039F9E8240FF50EE439EF
:10394300F50F850E82F583E4F07403121447123ADF
:1039530003640160030238227405121447740112D0
:103963006D57F07403121447125F2B123D05E8F0F4
:10397300A3E902384685218285228312505A1222F6
:103983006A852182852283120EFB7426121447E076
:10399300FD7425121447E0FC740A121447E0F9EE93
:1039A300FAEFFB12231E740212111D80438E828FC5
:1039B30083A3A3A3E0C0E0740C121447D0E0F01279
:1039C3006BC0E0C0E0740D121447D0E0F07406122F
:1039D300144712566C7009740E12144774B9800799
:1039E300740E1214477410F074091211A612246293
:1039F3007411026D69E0850E82850F83A3A3A32250
:103A0300E0125759E022E0125759A3A322852182DD
:103A1300852283EAF0A3EB1256752274F0120B127F
:103A230074E11211B67404121447E9F0740312140A
:103A330047ECF07402121447EDF08A0E8B0F742FCB
:103A4300121447123421AA0CFB12225874011214C7
:103A530047E9F0AA0CAB0D12225E7401121447E081
:103A63007003023CDD852182852283E480158E82EA
:103A73008F83A3A3A3A3A3E0D2E3F08521828522AE
:103A830083E004126CAFF8852182852283E0C3981A
:103A93004003023CD47401121447E07003023CD487
:103AA300852182852283123CE2E50C28F8E50D3955
:103AB300F9E8240FFEE439FF8E82F583A3A3A3A3C1
:103AC300A3E0A2E040B5750800750A08750B007401
:103AD30002121447E060037508207C087D0079001A
:103AE30074051211A6121AAE8E828F83E0603E9087
:103AF300161BE06401701AE508D2E3F508750B1094
:103B0300123CF2121447E8F0A3E9125B1D74FF8024
:103B13007643080C750A0C8E828F83A3123CFD1228
:103B2300713A740512144774FFF0A3805A74041297
:103B33001447E06009E508D2E6F508750A0A8E82A3
:103B43008F83A3E064FE7003A3E0F4703074121259
:103B53001447740412670CF8741D121447E8124ECC
:103B6300C774121211A61221867D007C007900749D
:103B730015121447AA82AB83121F3A800B123CF230
:103B8300121447E8F0A3E9F07407121447E508F0AC
:103B9300124234C0E07409121447D0E0F0740A12E0
:103BA30014477401F074051211A61224267411121D
:103BB3001447E06003023CB2740D12144712577CA1
:103BC3008E828F83A3A3A3A3F0740D121447124E06
:103BD30095E50AF0A3E50BF07403121447E0C0E087
:103BE300124E26D0E0125E39601190161BE0C0E041
:103BF300740D121447124E70D0E0F0740D12144776
:103C03001243A0850C82850D83A3A3A3A3A3123C17
:103C1300EB241C12649B127154123CED125DEB39C0
:103C2300126BDFC0E0124E0DD0E0126CA4C0E07442
:103C33000D121447124953D0E01269A5C0E0740D68
:103C4300121447124949D0E0F0740D121447123C84
:103C5300FD123CEB242A12649B850E82850F83A3FD
:103C6300A3A3A3A3A3A3A3E0126494124223C0E0DB
:103C7300124935D0E0F0740D12144712505A850ED4
:103C830082850F83126CBA2428F582E43B127138C3
:103C930012422C126CCB12113C126195EA12642D64
:103CA3003B127E7812111D74051211A612242C8E5C
:103CB300828F83A3A3A3A3A3E0D2E0F07411121411
:103CC30047E06003023A717401121447E014023AA8
:103CD3007D7900AA0CAB0D12232A741F026D69E0D3
:103CE30075F007A4F8A9F022A3A312505EE8228E70
:103CF300828F83A31243A4740522E0123D05A3A37C
:103D0300A322F8A3E0F9850E82850F83A32274F022
:103D1300120B1274E81211B6E9852182852283F011
:103D23008A0E8B0F8A828B83A3A3A3A3A3A3A3A32C
:103D3300E0F91222828A088B09EA4B7003023DEEF6
:103D4300E50E1255EF12424C1241E3852182852282
:103D530083E06003023DF17C04850E82850F83A31B
:103D6300A3A3A3A3A3A3A3E0F9122288EE4F607B2E
:103D73008E828F83A3A3A3A31243A07407121447B5
:103D83001265D21243A07409121447124EF7C0E011
:103D93007411121447D0E0126983A3A3A3A3A3A3AE
:103DA300A31243A0740F12144712713A741212141F
:103DB30047E4126D5FC8241FF582E438F58312616E
:103DC30060C413135403FC70027C048E828F83E05F
:103DD300F97808121140742059FD744059F974039D
:103DE3001211A612231E740212111D026D677C08A4
:103DF300850E82850F83A3A3A3A3A3A3A3A3E0F9A3
:103E03001222888B0BEA4B7003023D6FEE4F60DB8F
:103E1300852182852283E0F50C780C1211448508F4
:103E230082850983A3A3A3A3A3A3A3E0F50C780C22
:103E33001211448A828B83A3A3A3E0FB8A82850B9E
:103E4300831279978A82850B83E0FA8E828F83A30C
:103E5300A3E0F9122B8E740212111D023D7374F745
:103E6300120B1274FA1211B6E9FE780179017F0080
:103E7300800379000F1251D6E0FCEFC39C5026EF6C
:103E830075F007A4FC85F008AD08EA2CFCEB3DFDBA
:103E93001247C5E0A2E050DA540C60D6E0A2E2502B
:103EA300D3780080CF8A828B83A3A3A3A3A3A3E0A9
:103EB300703DE9A2E0400574016E70338A828B8302
:103EC300A3A3A3A3A3A374011241B5E0C0E07403A9
:103ED300121447D0E0124824E0C0E07404121447DF
:103EE300D0E0F07405121447E81260FF12246274E4
:103EF30006024A42C082C083790112232A025F3B31
:103F030074F4120B12EA4B90185A6019E4F08A0801
:103F13008B09F50AF50B78081211387A0212342945
:103F230012111D800A7401F07A027B00123416020A
:103F3300351174F0120B1274F31211B674031214C8
:103F430047E4F0A3F090158B1241E3740112144778
:103F5300E4F0A3124ECC04F09015C5E0A2E35003A5
:103F63000240281241A97409121447121418740943
:103F730012144778081213D490158D7808121186FD
:103F8300740512144778081213B61240AC74051264
:103F93001447780812137750077A017B000240997F
:103FA3007405121447780C1213D49017FAE0F5092C
:103FB300780C7908120AA3A80CA90D9017FBE0C38B
:103FC30098E4995003E08001E8852182852283F0FB
:103FD300740912144778081213D4C008C009C00A20
:103FE300C00B7405121447780C1213D41240AC782A
:103FF3000C7908120AA3E4F50AF50BD00FD00ED002
:104003000DD00C780C790812125E90158D780C1275
:1040130013B6801112409E12713AEEFAEFFB121B97
:104023005CAE08AF09EE4F60658E828F8312369CBB
:10403300C398502DEE2403F8E43FF9E0FA8882890F
:1040430083E0C39AF0602374031214471245067485
:1040530001121447EEF0A3EF1265EDFEA3E0FF801B
:10406300C48E828F83A3A3A3E4F08E828F83127EF8
:1040730031740112144712566C8E828F83A3A3A34B
:10408300A360911265C61214471240A58089740378
:1040930012144712505A740D026D691243A49015FD
:1040A3008B2212618BA3A3A3229017F9127E39E40A
:1040B300F50AF50B2274F0120B128A088B09890A90
:1040C3007800790090158B1241E3FBEE4B601E08DC
:1040D3008E828F83A3A3A3A3125024601008E870D9
:1040E30001098E828F831241DFEA4F70E39017FC40
:1040F30012505AC3E89AE99B400302419C7A061284
:10410300419FA80CA90DEA49700302419C8A828B46
:1041130083E508F0A3E5091241BEE50AF09017FB19
:104123001251DE1241B5A3E4F0A3F090158B1250A7
:1041330024600D8E828F83A3A3A3A312713A8017E9
:1041430090158B12713A9015C5E0A2E34009124114
:10415300A990158D1214189015C5E0A2E3503A7A70
:10416300087B00901570E0F9121C2EEA4B4C4D7041
:10417300289017F9E0F508A3E085080CF50DE4F5A0
:104183000EF50F780C1211387A087B00901570E049
:10419300F9121C22740412111D026D6C7B00121B98
:1041A300568A0C8B0D22121C40EAF8EBF9ECFAED5F
:1041B300FB221241B9221241BEA322F08A828B83D1
:1041C300A3A322E508F0024A45F08E828F83A3A3BE
:1041D300A3A3A3A322125AD6A3A3F022A3A3A3A308
:1041E300E0FEA3E0FF227F05020E72F582E43509AB
:1041F300F583E0F922EA1241FD222410F582E4223C
:1042030012420BA3A3A3A3221243A8850882850904
:10421300832212421922F0850A82850B83A3A322EB
:10422300E50E2411124249E022E50E240E12424902
:1042330022E50E2410124249E02212424122EE12DC
:1042430041FD3FF58322F582E4350FF58322240FE8
:10425300F50AE43509F50B780A22E0F9121AD88A2F
:10426300088B09EA4B2274F2120B12890B8A088B12
:10427300098A828B8312505A12234EEA4B600479C7
:10428300B8806A12235AE9F89031ECE493F9E8C351
:1042930099400479B280567A1512419FAE0CAF0D46
:1042A300EA4F7004791080458A828B83E4F0A3126D
:1042B30041BEE50BF0750A00780812113C7C127DB3
:1042C30000EA2403126C7612111D90159112566C9C
:1042D3007008901591800C1243A088828983124242
:1042E300F370F4EEF0A3EFF012236C790002514661
:1042F30012505EEA4B8882898322C082C083901564
:104303009180048C828D83127998EC4D60288C8285
:104313008D83A3A3E069600574FF6970E68C828DC9
:1043230083A3A3A3E06A7003A3E06B70D6EC24031A
:10433300FAE43DFB80047A007B00025F3B74F712D2
:104343000B12E9FD74FE6D70047C0180027C009009
:10435300159180096D70027C018882898312566CE5
:10436300601F88828983A3A3A3E06A7003A3E06B21
:1043730070E7ECA2E088828983A3A3E050D6F9809A
:104383000279FE024A45EEF9800CA3A3127E39EEB0
:1043930022740212111D7F02020E72F5831243A4CE
:1043A300221243A822E0F8A3E0F9221243A88E8246
:1043B3008F832212111D7F03020E72C082C0837984
:1043C30000901591800109E0FAA3E08A82F583E564
:1043D30082458370F1025F3B74F6120B12E4F50819
:1043E300F50978081211409031ECE49375F013A4A9
:1043F300A9F01244FB12719812111DE9FE74096EA3
:10440300700312236602438974F6120B1274FE12B0
:1044130011B6852182852283E4F0A3F0A821A92285
:10442300880889097808121140750802750900780F
:1044330008121140126E0912111D02439474F512F1
:104443000B1274EB1211B6852182852283E4F0A34B
:10445300F090159180748E828F83A3A3E0C0E074E3
:1044630002121447D0E0125B1DA982AA8389088A2D
:1044730009750A00780812113C7C127D007406123B
:10448300144712715D12111D740212119E8808895E
:10449300097808121140750813750900780812117C
:1044A30040740412144712560F75F013A4F8AAF0BF
:1044B30075F013E91244F7126E1112111D85218252
:1044C3008522831245068E828F831241E3EE4F705D
:1044D30085A821A92288088909780812114075083E
:1044E300027509007808121140126E0912111D7429
:1044F300150243B6A42AF9E82402FCE439FD7A4202
:104503007B0022E02401F0A3E03400F02274F412D3
:104513000B1274EB1211B67E007F00A821A922882A
:1045230008890978081211407508028E0978081263
:1045330011407C007D007A421271A412111DE970B2
:104543006C8E088056740212119E880A890B780AB1
:10455300121140750A13750B00780A121140E50811
:1045630075F013A4F8AAF075F013E5091244F712D5
:1045730071A612111DE9701B7403121447AA82ABB2
:10458300837402121447E0F9122348E970050EEE12
:1045930070010F0508E5087002050985218285224F
:1045A300831243A0C3E50898E509994098EEFAEF12
:1045B300FB741502350E74F6120B128C828D83A3D5
:1045C300A3124812F0EA1264333BF583E0C0E01211
:1045D30047CFD0E0F0EA241DF582E43B12439E125C
:1045E30047B312480DF0A3F0EA241FF582E43BF52C
:1045F300831241E3EC1247A63DF583EEF0A3EFF0FF
:104603001247AC3BF5831247DDA3A3A3A3A3A3EEF9
:10461300F0A3EF12608EFE8C828D8312481C74030C
:104623005EFEC394034003024799EE600874026E72
:1046330060030246BE8C828D83E0540CFE740C6EC4
:1046430070030246FDE0A2E4400D88828983E08C7A
:10465300828D83A312483274086E60030246FD12F2
:1046630047BD7401F08A828B83A3A3A3A3A3125A29
:10467300E370148C828D83E0440C124824A3A312AC
:1046830047DDEEF0A3EFF08C828D83E0A2E4402BB4
:1046930088821247EB124800500109F5821247EB5A
:1046A300A3A3A3A3A3A3F0A3EF12482C8C828D830F
:1046B300A3A3A3F0E82403F850010988828983E0C7
:1046C300C0E0EC2411F582E43DF583D0E012481CF0
:1046D3008C828D83E0A2E7507588828983E0FE8C0B
:1046E300828D8312483274FC5E700C8C828D83A39E
:1046F300E054036403701E0247991247BDE4F0744B
:104703000C6E600302466888821247F1124800501B
:10471300010902468A8C828D83A3E05403603288A8
:10472300828983E0C0E0EC1247D73DF583D0E012E5
:1047330048338C828D83E054036402701488828929
:1047430083E0C0E01247C5D0E01248338003A3E4FE
:10475300F0EC1255DB3D127138EC2410FEE43DFF02
:10476300EA241DF582E43BF583E0F5088E828F830E
:10477300E0C3982508F508F0EA2417F8E43BF98824
:1047830082F583E0C39508C0E01247B3D0E012601E
:104793008EC39508500A1247B3E4F01247CFE4F0F2
:1047A3000243992415F582E422EA240DF582E422DA
:1047B300EC240DF582E43DF58322EC1257943DF58C
:1047C3008322EC2414F582E43DF58322EC1241FDAF
:1047D3003DF583222413F582E422E0FEA3E0FF8C5F
:1047E300828D83A3A3A3A3221247F1A3A3228983C8
:1047F300E0F508A3E0FFE5088C828D8322A3A3A341
:10480300A3F0A3EFF0E82402F822124812A322E453
:10481300F08C828D83A3A3A32212483AA882A98392
:10482300221241B9A3A3A3A32212483AA3E022A3CD
:1048330012483A08A98322126097A32274F4120B38
:104843001274F31211B68A0A8B0BECFEEDFF8C8205
:10485300F583E0540CF508E0A2E75006E508D2E73B
:10486300F508E508D2E1F508125AE37006E508D227
:10487300E4F508E0A2E55006E508D2E5F5087C0872
:104883007D007900AA21AB22121AAE7402121447DA
:10489300E50812713EC0E07403121447D0E0124ED3
:1048A300CCE50AF0A3E50BF074051214471269AACC
:1048B300121447E070777408121447124E521260B4
:1048C30080381269C5C0E07408121447124953D0E6
:1048D300E01269A5C0E07408121447124949D0E0F8
:1048E300F0740812144712493FE0124E7A124EFB3D
:1048F300126494EE2411125AAFC0E0124935D0E08D
:10490300F0EE2414125AAFC0E07408121447124E8A
:10491300522435F582E438F583D0E0124E9FC0E08F
:104923007408121447124E56D0E01266FE740D023C
:10493300350EE82432F582E439F583221243AEA31F
:10494300A3A3A3A3A322124E66126BA438F583225A
:10495300124E662426F582E438F5832274F7120B8F
:10496300127E008A828B83A3A3A3A3A3A3A3A3A3DF
:10497300E064046003024A2112578CE06003024A98
:10498300211255EE3B12566A7003024A218882892E
:1049930083E054036003024A21E812579439F583F4
:1049A300E0FA8C828D83A3A3E0FBA3E0CB2411F573
:1049B30082E43BF583E06A706588828983A3A3A3BD
:1049C300A3A3A3A3A3A3124A25E06A7003A3E06BE6
:1049D300704C88828983A3A3124A31E0FFA3E0CFFE
:1049E3002406125AAF6A7003A3E06B703188828980
:1049F30083A3A3E0F88C828D83A3A3E0F9A3E0F55E
:104A0300838982A3A3E06860138C828D83A3A3A30D
:104A1300E0F5838982E0540C640470027E01EEF9B0
:104A23008020124A29221250628C828D8322A3A3F2
:104A3300124A29A3A322740C121447E0F9740D122D
:104A4300111D7F01020E7274F6120B1274FC121107
:104A5300B6EAFEEBFFECFAEDFB8C82F583A3E054A0
:104A630003601690158712566C60597900EEFCEFBF
:104A7300FD12628B122BBA804B852182852283EE35
:104A8300F0A3EFF07402121447124EC1AC21AD2211
:104A93007A847B231225AC8A088B09A808A909EA22
:104AA3004960218A828B83A3A3A3A3A3A3A3A3A364
:104AB3007406F07A0088828B83124E52126454E09B
:104AC300F912250A740402439674F2120B1274F35A
:104AD3001211B6EAFEEBFF8A82F583A3A3A3A3A375
:104AE300A3A3A3A3A3E0F50A90185AE0700579BA2B
:104AF300024E0A750801750900750C00750D007CDE
:104B0300087D007900AA21AB22121AAE7405121493
:104B1300477401124ED4540460127402121447E015
:104B2300D2E6124ED454087003750803E0541060A3
:104B33000674404508F508E0540860227402121414
:104B430047E044C0124ED45420600A740312144741
:104B5300E0D2E080087403121447E0D2E1F0EE24BF
:104B630015125AAF124E3A70037401697006740835
:104B73004508F5088E828F83A3A3A3A3A3A3A3A3AE
:104B8300E070161226068521828522831264A174A1
:104B930002121447E0D2E28030640F7010740212E4
:104BA3001447124EDC74044508F508807F8E828F0B
:104BB30083A3A3A3A3A3A3A3A3E064028E828F83EF
:104BC300700A127171E8F0A3E9F08060A3A3A3A3B4
:104BD300A3A3A3A3E06403700DAC21AD22EEFAEF0F
:104BE300FB1223BA80468E828F83A3A3A3A3A3A31E
:104BF300A3A3E06401703590161BE06010740212E9
:104C03001447124EDC750910750AFF8018740212DE
:104C13001447E0440C124ECC74FDF0A374FFF074FF
:104C2300044508F5088E828F83123421EE24151271
:104C33005AAFA2E0503F7402121447E0540C701BA9
:104C43008E828F8312505A122006E9700579BB02B7
:104C53004E0A7402121447E0D2E5F0EE2415125AFC
:104C6300AFA2E050107402121447E0540C640470B5
:104C730004E0D2E5F0EE2411125AAFC0E07404123E
:104C83001447D0E01269AC121447E06003024E03EC
:104C93007408121447124E95E508F0A3E509F012C3
:104CA3004E30E0C0E0124E26D0E0F0124E17E0C0C6
:104CB300E07408121447124E521247D738F583D0C6
:104CC300E0124EFB6401701190161BE0C0E0740803
:104CD300121447124E70D0E0F07408121447124EAB
:104CE30090124E21FAE8241CF582E439F583EA1286
:104CF3004EC7EE2415FAE43FFB8A82F583127998B6
:104D0300E8125DEB39F583124EC1EE241C125AAF43
:104D1300C0E0124E0DD0E0125F31124E3A700374B0
:104D230001697013740812144712577CFAEE241D9C
:104D3300125AAFF912228E8E828F83A3A3A3A3A349
:104D4300A3A3A3A3E0C0E07408121447124953D0ED
:104D5300E0F07408121447124949E50AF074081286
:104D6300144712560F2428F582E439F583E50CF035
:104D7300A3E50D124EA7124E7A125B28126494EE2D
:104D8300124E21C0E0E82433F582E439F583D0E004
:104D9300F0EE241B125AAFC0E07408121447124EEF
:104DA30056D0E0F0EE241A125AAFC0E07408121481
:104DB30047124E522432F582E438F583D0E0124E86
:104DC3009F124E4612113C126BAA127998740B1261
:104DD3001447124E52242F127E7412111DEE241505
:104DE300125AAF544060129015A712566C600AAA6B
:104DF30021AB2212628B122BBAAA21AB2212242CD2
:104E0300740C121447E0F9025141E82420F582E4BE
:104E130039F58322EE2419F582E43FF58322126BE0
:104E2300B9E022E82412F582E439F58322EE24184E
:104E3300F582E43FF583225480F8A3E05401F9742A
:104E4300806822F508A3E0F509750A0078082212A4
:104E53004E6622124E662434F582E438F58322A38B
:104E6300A3A3A3124E6A22E0F8A3E0C822124E665F
:104E73001247A638F58322FAA3E0FBE8242AF58239
:104E8300E439F583EAF0A3EB22A3A3A3A31243A47B
:104E9300EE221256131255F339F58322F0EE241342
:104EA300125B3022F0EE240D125B3022E0FC8A828A
:104EB3008B83E02CFCA3E03400FD8A828B83ECF02F
:104EC300A3EDF022F0A3E4F022F085218285228372
:104ED30022F0EE2415125B3022E0D2E3F0124EE40E
:104EE300228E828F831243A8852182852283E8F054
:104EF300A3E9F022E8F0A3E91265E7E02274F712D0
:104F03000B128A828B83A3E0640170047E638002A8
:104F13007E648A828B83E060087905124F3424F320
:104F2300FE9015C3E06007F9124F3424F2FE024AE3
:104F3300211224D4E9F8EEC3982274F6120B1274EA
:104F4300FE1211B68521828522831264A1E9FEEC4B
:104F5300FAEDFB9005C212566C6032A821A9228893
:104F630008890978081211407D01740E121447E074
:104F7300FCEEF99005C2126475122BBA7402121179
:104F83001DEA4B60047900800679B2800279B6028B
:104F9300439474F7120B12E9FE90157D12566C6060
:104FA3001F7409121447E0F5087808121144EEF94A
:104FB30090157D126475122BBA740112111D8002B3
:104FC30079B6024A4574F7120B128908ECFEEDFF1D
:104FD30079B5E508245E602014600624F860348007
:104FE3003D9005C412502460351271B5122BBA8E50
:104FF300828F831264A1802490157F127998EC4DDF
:10500300601CEEFCEFFD90157F126475122BBAE95C
:10501300F9800B90157B12502A121C587900024A12
:105023004512505EEA4B2212799CEEFAEFFB227492
:10503300F7120B12E9FE79B574AB6E700B90157B0A
:1050430012505A121C587900024A458E828F83A34C
:10505300A3A3A3A3A3A3A312505E2212506222E030
:10506300FAA3E0FB2274F1120B12EAFEEBFF8C0AA7
:105073008D0B7508019015CBE06E7003A3E06F7084
:105083000C125135AA0AAB0B121C58805E12260C67
:10509300EE6A7002EF6B7009AA0AAB0B122612803C
:1050A3004AAC0AAD0BEEFAEFFB122162E9F5089068
:1050B3001801E07036122AC2E97030E508702C90AE
:1050C300159BE06E7003A3E06F7020EE4F601C75BC
:1050D3000C93750D15750E00780C12113C7C087D30
:1050E30000AA0AAB0B12716112111DA908027A946E
:1050F30074F2120B12EAFEEBFF8C088D09750A019C
:10510300125135EEFAEFFB121C52E9640170119053
:1051130015CB1243A085088285098312713A800E4C
:10512300AC08AD09EEFAEFFB122168E9F50AA90A0A
:1051330080111226008A0C8B0DAC0CAD0D22740D60
:1051430012111D7F06020E7274F6120B12EAFEEBA9
:10515300FF7A0D7B00121B56EA4B6062EE24241289
:105163006E3EF0EE2425126E3EA3125203126E44DD
:10517300A3A3126BD71251DEF0EE1251C41251F3F6
:10518300E8F0A3E912521A1251EB12713AEE1251DE
:10519300CD126C9AA3A3A3A3F0EE2433125AAFC08B
:1051A300E01251D6D0E01269C91251EBA3A3A3E8D0
:1051B300F0A3E9125212C0E012578CD0E0F0024380
:1051C30099242AF582E43FF58322242EF582E43FD5
:1051D300F58322EA125C053BF583221251E222E0B9
:1051E3008A828B83A3A3A322126CF9A3A3A3A32272
:1051F3001251F7221243A88A828B83A3A3A3A3226B
:10520300F012520822EE2426F582E43FF58322F0C1
:10521300EE2432125B3022F0EE242C125B30227427
:10522300F4120B1274FE1211B6ECFEEDFFEC241611
:10523300125AAF64057010EC2406FCE43FFD122300
:10524300B4E970030252CEAC21AD22126EF31220E8
:105253000C85218285228312566C606B8E828F832C
:10526300E064017058E875F009A4F8AAF075F00934
:10527300E9A42AF974F228F8740239F9E8FAE9FB87
:105283008882F58378081213D4EE125370121377C1
:105293004027852182852283124E90125ABD1252D5
:1052A300D378081213D490870A78081212FA8A82E4
:1052B3008B8378081213B6800A79A28010EE240F2C
:1052C3001271347900800679A1800279C802350C05
:1052D300124EF1EE126BC52274F2120B128A0C8B72
:1052E3000DECFEEDFFEC125ABDE4F0A3F090874AFB
:1052F30078081213D4EC1253701212216067EC2455
:105303000E125AB6703478B39015C2E07028901517
:10531300F4E064017020EC2411125AAFF91224BC9A
:105323008B09A909EE1255EF3F12649FEA49600405
:105333007800800278A18808802EE06004640270FF
:105343000A1223C6E9F5087007801DE06403701094
:10535300EEFCEFFDAA0CAB0D122030E9F508800836
:105363007508A180037508A3A908025146126BC5ED
:1053730078082274F0120B1274F51211B6EAFEEBE0
:10538300FFEA240AFCE43F8C82F583127E35125532
:10539300F974031211AE8A828B83126295E970034A
:1053A30002545F74011211AE74031211A612200C81
:1053B300740112144712566C700302545FE875F0BF
:1053C30009A4F8AAF075F009E9A42AF974EE28FCF7
:1053D300740239FDE508240E1266E6E4F0041214A3
:1053E300471243A0E5081255EF35091271388C8234
:1053F3008D8312140CE50824121266E61214189019
:10540300870A78081213D48C828D8378081212AE1F
:105413008C828D83780C1213D4908706780812132C
:10542300D4780C7908120AA3E5084509450A450B07
:10543300702A740112144712560F75F009A4F8AAC2
:10544300F075F009E9A42AF974F628F58274023993
:10545300F5837401F07A007B0812561C8E828F83C9
:10546300A3A3A3A3A3A3A3A3A3A3E02406FCA3E052
:105473003400FD8E828F831262951269B7603EEE0F
:10548300240A1255E1124E957468124EC7E812555C
:10549300DB39F5837402F09015AD12140C8C828DF8
:1054A3008312648E1260803CF58312141890870A6D
:1054B30078081213D49015AD78081212AE1256570D
:1054C300705D90157B125607A3A3A3A3A3A3A3A365
:1054D300A3A31260B6121C52E970101260749015E7
:1054E3007B12608670051269B760348E828F83A346
:1054F300A3A3A3A3A3A3A3A3A312560712505A12B1
:105503002036E960118E828F83A3A3A3A3A3A312E2
:105513005643E4F0A3F08E828F83125629E4F012EF
:10552300565760030255D68E828F83A3A3A3A3A3EA
:10553300A3127E319015C2E060030255CB9015F49F
:10554300E0640160030255CB750A3A750B00780AD3
:10555300121140740212119E880A890B780A1211E3
:105563004012743012111DE9705BE508240E1266B7
:10557300E67401125671C0E0E50824111266E6D004
:10558300E0F0E508240F1266E6743A124EC7901550
:10559300A912140CE50824121266E6121418908757
:1055A3000A78081213D49015A978081212AE9087BE
:1055B3000A78081213D49015A978081212217008DA
:1055C30012561880031255F91256577006125F7758
:1055D30074A1F0740B026D69240EF582E422F8E4E1
:1055E3003FF9E8FCE9FD8882F58322EA1255F322AC
:1055F300240FF582E422E5081255F33509F583E417
:10560300F0A3F02212799C8E828F832212561322EA
:105613001243A8E8227A007B02901452E0F9121B8D
:1056230002228A828B83A3A3A3A3A3A3A3A3A3A3DB
:1056330012563722124E6A240EF582E438F583227D
:10564300A3A3A3A312564B22124E6A240FF582E49E
:1056530038F583228E828F83A3A3A3A3A3A3124E21
:1056630062240FF582E438F5831256134922125649
:105673007522F0852182852283E02274F6120B12B3
:10568300EAFEEBFF7A237B00121B56EE240AF50891
:10569300E43FF50985088212649F7C237D0079002D
:1056A300121AAE85088285098312566C700302575D
:1056B3003FEEFAEFFB1223D212565760748E828F9D
:1056C3008312577264018E828F83A3A3A3A3A3A320
:1056D3007007125768740E802112566C701012698D
:1056E300B7700B8E828F83A3A3E0A2E050071257FB
:1056F3005E740D800512575E74051269C954036404
:105703000170071257467405800B9015C3E0C0E083
:10571300125746D0E0125781F5838882125ADC85EE
:105723000882850983124E5212643338F583E98067
:105733000E850882850983126518800312645BF065
:105743000243998E828F83A3A3A3A3A3A3A3A3A39B
:10575300A312575822E012647AA3228E828F83A366
:10576300A3A3A3A3A3124E6212643938F58322A321
:10577300A3A3A3A3A3A3A3A3A3125637E022125761
:105783008522126F08F8A3E022EA1257943BF583AF
:1057930022240CF582E42274F1120B1274E4121128
:1057A300B68A0C8B0D8C088D097A237B00121B564D
:1057B3008A0A8B0BAE0AAF0BEA4F7003025A971299
:1057C300643FE5082415125AC8687003A3E0698E84
:1057D300828F837004740280027401F0E508240D43
:1057E300F8E43509F98882F583E0FAC3E49AFA9577
:1057F300E0FB125AC42AFAA3E03BFB8E828F83A3F9
:10580300A3A3A312609D8E828F83A3A3F0EE242013
:10581300F582E43FF583E4F0EE2421F582E43FF5DD
:1058230083E4F0EEFAEFFB12248685088285098370
:10583300125AE370098E828F83A374058006901534
:10584300C3125AD1F0EE2417F50AE43FF50B8E820A
:105853008F83125ADCE9850A82850B83F0EE2416C6
:10586300F8E43FF9E508240EFAE43509FB88828958
:1058730083124EAFE5082410FAE43509FB850A824A
:10588300850B83E0FC88828983E0F88A828B83E03E
:10589300C398C39CF8125B1DF0EEFCEFFDAA0CABA2
:1058A3000D1223CCE9F50B8E828F83E06402700620
:1058B300126074125AA1E50B6003025A8E750C0034
:1058C300750D00901801E064016005E06402703F0B
:1058D300125AB36008EE2421125AB670328E828FA8
:1058E30083A3A3A3126461125AE9EE2416125AAFDA
:1058F300125B12FAE439FB1241A1EA4B6011126CFC
:10590300C312113C125AF7AA0C12716112111DEE47
:10591300FAEFFB122492E9F50B901801E0640160A1
:1059230008E064026003025A81E97003025A81E5C8
:105933000C450D7003025A8E8003850E0B125AB369
:10594300600BEE2421125AB66003025A87850B0EB0
:10595300850C08850D09750A00780812113C125A46
:10596300F78E828F83A3A3A3A3127E7A12111DEE57
:105973002420125AAF600D125ABC7468124EC7EE3F
:1059830024208015EE2421125AAF6015125ABC74DC
:1059930003F0A37401F0EE2421F582E43FF583E4E0
:1059A300F0EEFAEFFB122492E9F50B70907C137D75
:1059B30000790074091211A6121AAE741A12144750
:1059C3007401125B2864687002A3E0704F8E828FAB
:1059D30083125643E06405600302593D7C0879FF56
:1059E3008E828F83A3A3A3A3E0242A1260B9121B80
:1059F30038E9700302593D7C087D0079FF74011278
:105A030011A6121AAE74011211AE7A007B0079ABA3
:105A13001223AE741912144774FC8015125ABCE099
:105A230064037004A3E064017008741912144774CA
:105A3300FFF0E4F508F50978081211407402121119
:105A4300AE7413121447AA82AB8312659E12111D02
:105A5300852182852283E0602B740912119E8808B8
:105A6300890978081211407508137509007808121E
:105A730011407C007D00126E1112111D8006E50C91
:105A8300450D6007AA0CAB0D121B5CEEFAEFFB127F
:105A93001B5C8003750B10A90B741C027A91EE2416
:105AA30006FAE43FFB121C5822EE240C125B302250
:105AB300EE2420125B30640122EE1255F33FF5838E
:105AC30022E508240EF582E43509F583E022125A13
:105AD300D6A322E08E828F8322A3E0F91224D4225C
:105AE300E05403640122125AED22E0FAE82AF8E4B2
:105AF3003400F9228E828F83A3A3A3126465125A02
:105B0300EDEE2416125B30125B12FCE439FD22FA2F
:105B1300E82AF8E439F9E8240422125B2122126905
:105B2300D8A3A3A322F0125B2D22EE240FF582E467
:105B33003FF583E02279010210CD74F4120B12EACF
